:020000040800F2
:1000000000000320E11400088D1800088F18000874
:1000100091180008931800089518000800000000C7
:100020000000000000000000000000009918000817
:1000300097180008000000009B1800089D18000891
:100040003115000831150008311500083115000878
:100050003115000831150008311500083115000868
:100060003115000831150008311500083115000858
:100070003115000831150008311500083115000848
:100080003115000831150008311500083115000838
:100090003115000831150008311500083115000828
:1000A0003115000831150008311500083115000818
:1000B0003115000831150008311500083115000808
:1000C00031150008311500083115000831150008F8
:1000D00031150008311500083115000831150008E8
:1000E00031150008311500083115000831150008D8
:1000F00031150008311500083115000831150008C8
:1001000031150008311500083115000831150008B7
:1001100031150008311500083115000831150008A7
:100120003115000831150008311500083115000897
:100130003115000831150008311500083115000887
:100140003115000831150008311500083115000877
:100150003115000831150008311500083115000867
:100160003115000831150008311500083115000857
:100170003115000831150008311500080000000095
:100180003115000831150008311500083115000837
:100190003115000831150008311500083115000827
:0C01A00031150008311500083115000869
:1001C00010B5054C237833B9044B13B10448AFF391
:1001D00000800123237010BDC00900200000000032
:1001E000807D000808B5034B1BB103490348AFF3FA
:1001F000008008BD00000000C4090020807D0008C8
:1002000090F800F06DE9024520F007016FF0000C56
:1002100010F0070491F820F040F049804FF00004FE
:100220006FF00700D1E9002391F840F000F10800D9
:1002300082FA4CF2A4FA8CF283FA4CF3A2FA8CF311
:100240004BBBD1E9022382FA4CF200F10800A4FA78
:100250008CF283FA4CF3A2FA8CF3E3B9D1E90423CC
:1002600082FA4CF200F10800A4FA8CF283FA4CF303
:10027000A2FA8CF37BB9D1E9062301F1200182FABD
:100280004CF200F10800A4FA8CF283FA4CF3A2FAC3
:100290008CF3002BC6D0002A04BF04301A4612BAD1
:1002A000B2FA82F2FDE8024500EBD2007047D1E9D4
:1002B000002304F00305C4F100004FEAC50514F063
:1002C000040F91F840F00CFA05F562EA05021CBF34
:1002D00063EA050362464FF00004A9E7000000004E
:1002E00001F0FF01102A2BDB10F0070F08D010F8E7
:1002F000013B013A8B422DD010F0070F42B3F6D1EB
:10030000F0B441EA012141EA014122F007047FF003
:1003100000070023F0E80256083C85EA010586EA5A
:10032000010685FA47F5A3FA87F586FA47F6A5FA96
:1003300087F68EB9EED1F0BC01F0FF0102F00702A2
:1003400032B110F8013B013A83EA010313B1F8D14D
:100350000020704701387047002D06BF354603382E
:10036000073815F0010F07D1013015F4807F02BF67
:10037000013015F4C03F0130F0BC0138704700BFB8
:10038000844641EA000313F003036DD1403A41D3A0
:1003900051F8043B40F8043B51F8043B40F8043B5F
:1003A00051F8043B40F8043B51F8043B40F8043B4F
:1003B00051F8043B40F8043B51F8043B40F8043B3F
:1003C00051F8043B40F8043B51F8043B40F8043B2F
:1003D00051F8043B40F8043B51F8043B40F8043B1F
:1003E00051F8043B40F8043B51F8043B40F8043B0F
:1003F00051F8043B40F8043B51F8043B40F8043BFF
:1004000051F8043B40F8043B51F8043B40F8043BEE
:10041000403ABDD2303211D351F8043B40F8043B8E
:1004200051F8043B40F8043B51F8043B40F8043BCE
:1004300051F8043B40F8043B103AEDD20C3205D39E
:1004400051F8043B40F8043B043AF9D2043208D096
:10045000D2071CBF11F8013B00F8013B01D30B8808
:1004600003806046704700BF082A13D38B078DD0E6
:1004700010F003038AD0C3F10403D21ADB071CBFB8
:1004800011F8013B00F8013B80D331F8023B20F822
:10049000023B7BE7043AD9D3013A11F8013B00F85B
:1004A000013BF9D20B7803704B7843708B788370E3
:1004B0006046704781F0004102E000BF83F00043D6
:1004C00030B54FEA41044FEA430594EA050F08BFEF
:1004D00090EA020F1FBF54EA000C55EA020C7FEAB3
:1004E000645C7FEA655C00F0E2804FEA5454D4EB30
:1004F0005555B8BF6D420CDD2C4480EA020281EAFA
:10050000030382EA000083EA010180EA020281EA31
:100510000303362D88BF30BD11F0004F4FEA013183
:100520004FF4801C4CEA113102D0404261EB410192
:1005300013F0004F4FEA03334CEA133302D0524218
:1005400063EB430394EA050F00F0A780A4F10104D4
:10055000D5F1200E0DDB02FA0EFC22FA05F280180E
:1005600041F1000103FA0EF2801843FA05F35941F4
:100570000EE0A5F120050EF1200E012A03FA0EFC73
:1005800028BF4CF0020C43FA05F3C01851EBE3719D
:1005900001F0004507D54FF0000EDCF1000C7EEBBA
:1005A00000006EEB0101B1F5801F1BD3B1F5001FF8
:1005B0000CD349085FEA30004FEA3C0C04F1010417
:1005C0004FEA445212F5800F80F09A80BCF1004F40
:1005D00008BF5FEA500C50F1000041EB045141EAC2
:1005E000050130BD5FEA4C0C404141EB0101013C8B
:1005F00028BFB1F5801FE9D291F0000F04BF01467A
:100600000020B1FA81F308BF2033A3F10B03B3F14B
:1006100020020CDA0C3208DD02F1140CC2F10C02DB
:1006200001FA0CF021FA02F10CE002F11402D8BF39
:10063000C2F1200C01FA02F120FA0CFCDCBF41EA05
:100640000C019040E41AA2BF01EB0451294330BDD4
:100650006FEA04041F3C1CDA0C340EDC04F11404B1
:10066000C4F1200220FA04F001FA02F340EA030088
:1006700021FA04F345EA030130BDC4F10C04C4F1CE
:10068000200220FA02F001FA04F340EA03002946AE
:1006900030BD21FA04F0294630BD94F0000F83F4F8
:1006A000801306BF81F480110134013D4EE77FEADB
:1006B000645C18BF7FEA655C29D094EA050F08BF27
:1006C00090EA020F05D054EA000C04BF1946104608
:1006D00030BD91EA030F1EBF0021002030BD5FEA4C
:1006E000545C05D14000494128BF41F0004130BD74
:1006F00014F580043CBF01F5801130BD01F00045C8
:1007000045F0FE4141F470014FF0000030BD7FEA3A
:10071000645C1ABF194610467FEA655C1CBF0B4635
:10072000024650EA013406BF52EA033591EA030F4C
:1007300041F4002130BD00BF90F0000F04BF002144
:10074000704730B54FF4806404F132044FF0000577
:100750004FF0000150E700BF90F0000F04BF0021F0
:10076000704730B54FF4806404F1320410F0004556
:1007700048BF40424FF000013EE700BF42004FEA51
:10078000E2014FEA31014FEA02701FBF12F07F43CE
:1007900093F07F4F81F06051704732F07F4208BF85
:1007A000704793F07F4F04BF41F40021704730B58C
:1007B0004FF4607401F0004521F000411CE700BFD8
:1007C00050EA010208BF704730B54FF000050AE05B
:1007D00050EA010208BF704730B511F0004502D55C
:1007E000404261EB41014FF4806404F132045FEA5E
:1007F000915C3FF4D8AE4FF003025FEADC0C18BF07
:1008000003325FEADC0C18BF033202EBDC02C2F1F8
:10081000200300FA03FC20FA02F001FA03FE40EA8A
:100820000E0021FA02F11444BDE600BF70B54FF08E
:10083000FF0C4CF4E06C1CEA11541DBF1CEA13556C
:1008400094EA0C0F95EA0C0F00F0DEF82C4481EAD4
:10085000030621EA4C5123EA4C5350EA013518BFF4
:1008600052EA033541F4801143F4801338D0A0FBE1
:1008700002CE4FF00005E1FB02E506F00042E0FB8E
:1008800003E54FF00006E1FB03569CF0000F18BF94
:100890004EF0010EA4F1FF04B6F5007F64F540743C
:1008A00004D25FEA4E0E6D4146EB060642EAC621CF
:1008B00041EA55514FEAC52040EA5E504FEACE2E3C
:1008C000B4F1FD0C88BFBCF5E06F1ED8BEF1004F3F
:1008D00008BF5FEA500E50F1000041EB045170BDBB
:1008E00006F0004646EA010140EA020081EA0301FF
:1008F000B4EB5C04C2BFD4EB0C0541EA045170BDFB
:1009000041F480114FF0000E013C00F3AB8014F174
:10091000360FDEBF002001F0004170BDC4F10004BD
:10092000203C35DA0C341BDC04F11404C4F120053E
:1009300000FA05F320FA04F001FA05F240EA020099
:1009400001F0004221F0004110EBD37021FA04F6CF
:1009500042EB06015EEA430E08BF20EAD37070BD89
:10096000C4F10C04C4F1200500FA04F320FA05F0E8
:1009700001FA04F240EA020001F0004110EBD370EA
:1009800041F100015EEA430E08BF20EAD37070BD5A
:10099000C4F1200500FA05F24EEA020E20FA04F333
:1009A00001FA05F243EA020321FA04F001F00041E2
:1009B00021FA04F220EA020000EBD3705EEA430E53
:1009C00008BF20EAD37070BD94F0000F0FD101F082
:1009D0000046400041EB010111F4801F08BF013CBB
:1009E000F7D041EA060195F0000F18BF704703F0F9
:1009F0000046520043EB030313F4801F08BF013D80
:100A0000F7D043EA0603704794EA0C0F0CEA13553B
:100A100018BF95EA0C0F0CD050EA410618BF52EAF5
:100A20004306D1D181EA030101F000414FF00000FB
:100A300070BD50EA410606BF1046194652EA430609
:100A400019D094EA0C0F02D150EA013613D195EA7D
:100A50000C0F05D152EA03361CBF104619460AD1C5
:100A600081EA030101F0004141F0FE4141F47001CF
:100A70004FF0000070BD41F0FE4141F4780170BDBF
:100A800070B54FF0FF0C4CF4E06C1CEA11541DBF24
:100A90001CEA135594EA0C0F95EA0C0F00F0A7F826
:100AA000A4EB050481EA030E52EA03354FEA013153
:100AB00000F088804FEA03334FF0805545EA131366
:100AC00043EA12634FEA022245EA111545EA10652E
:100AD0004FEA00260EF000419D4208BF964244F1C5
:100AE000FD0404F5407402D25B084FEA3202B61AE4
:100AF00065EB03055B084FEA32024FF480104FF4B8
:100B0000002CB6EB020E75EB030E22BFB61A75462B
:100B100040EA0C005B084FEA3202B6EB020E75EBBE
:100B2000030E22BFB61A754640EA5C005B084FEA26
:100B30003202B6EB020E75EB030E22BFB61A7546F3
:100B400040EA9C005B084FEA3202B6EB020E75EBFE
:100B5000030E22BFB61A754640EADC0055EA060EBF
:100B600018D04FEA051545EA16754FEA06164FEA02
:100B7000C30343EA52734FEAC2025FEA1C1CC0D1AE
:100B800011F4801F0BD141EA00014FF000004FF03B
:100B9000004CB6E711F4801F04BF01430020B4F1FC
:100BA000FD0C88BFBCF5E06F3FF6AFAEB5EB030CB4
:100BB00004BFB6EB020C5FEA500C50F1000041EBB1
:100BC000045170BD0EF0004E4EEA113114EB5C047E
:100BD000C2BFD4EB0C0541EA045170BD41F4801151
:100BE0004FF0000E013C90E645EA060E8DE60CEA59
:100BF000135594EA0C0F08BF95EA0C0F3FF43BAF76
:100C000094EA0C0F0AD150EA01347FF434AF95EA2C
:100C10000C0F7FF425AF104619462CE795EA0C0F10
:100C200006D152EA03353FF4FDAE1046194622E7DD
:100C300050EA410618BF52EA43067FF4C5AE50EAB7
:100C400041047FF40DAF52EA43057FF4EBAE12E7A7
:100C50004FF0FF3C06E000BF4FF0010C02E000BF88
:100C60004FF0010C4DF804CD4FEA410C7FEA6C5C6B
:100C70004FEA430C18BF7FEA6C5C1BD001B050EA0E
:100C8000410C0CBF52EA430C91EA030F02BF90EAF9
:100C9000020F0020704710F1000F91EA030F58BFB8
:100CA000994208BF90422CBFD8176FEAE37040F01A
:100CB000010070474FEA410C7FEA6C5C02D150EAB8
:100CC000013C07D14FEA430C7FEA6C5CD6D152EA73
:100CD000033CD3D05DF8040B704700BF8446104638
:100CE00062468C461946634600E000BF01B5FFF737
:100CF000B7FF002848BF10F1000F01BD4DF808ED07
:100D0000FFF7F4FF0CBF012000205DF808FB00BFD7
:100D10004DF808EDFFF7EAFF34BF012000205DF831
:100D200008FB00BF4DF808EDFFF7E0FF94BF01207E
:100D300000205DF808FB00BF4DF808EDFFF7CEFF7F
:100D400094BF012000205DF808FB00BF4DF808EDBE
:100D5000FFF7C4FF34BF012000205DF808FB00BF8F
:100D60004FEA410C7FEA6C5C02D150EA013C0AD1A7
:100D70004FEA430C7FEA6C5C02D152EA033C02D199
:100D80004FF0000070474FF0010070474FEA4102FA
:100D900012F5001215D211D56FF47873B3EB6252CD
:100DA00012D94FEAC12343F0004343EA505311F0F4
:100DB000004F23FA02F018BF404270474FF0000086
:100DC000704750EA013005D111F0004008BF6FF0C4
:100DD000004070474FF00000704700BF53B94AB958
:100DE000002908BF00281CBF4FF0FF314FF0FF3033
:100DF00000F074B9ADF1080C6DE904CE00F006F80E
:100E0000DDF804E0DDE9022304B070472DE9F04786
:100E1000089E0D4604468846002B4DD18A429446D2
:100E200068D9B2FA82F252B101FA02F3C2F120019A
:100E300020FA01F10CFA02FC41EA030894404FEA5F
:100E40001C45210CB8FBF5FE1FFA8CF705FB1E8331
:100E500041EA03430EFB07F199420BD91CEB030354
:100E60000EF1FF3080F01E81994240F21B81AEF1FD
:100E7000020E63445B1AA4B2B3FBF5F005FB10331A
:100E800044EA034400FB07F7A7420AD91CEB040419
:100E900000F1FF3380F00881A74240F205816444ED
:100EA0000238E41B40EA0E4000211EB1D44000236A
:100EB000C6E90043BDE8F0878B4208D9002E00F058
:100EC000EE800021C6E900050846BDE8F087B3FAC8
:100ED00083F100294AD1AB4202D3824200F2F98069
:100EE000841A65EB030301209846002EE2D0C6E980
:100EF0000048DFE702B9FFDEB2FA82F2002A40F0D2
:100F00009180A1EB0C054FEA1C471FFA8CFE0121D2
:100F1000B5FBF7F307FB1350250C45EA00450EFB24
:100F200003F0A84208D91CEB050503F1FF3802D2F3
:100F3000A84200F2CB8043462D1AA4B2B5FBF7F0CD
:100F400007FB105544EA05440EFB00FEA64508D9F0
:100F50001CEB040400F1FF3502D2A64500F2BB8071
:100F60002846A4EB0E0440EA03409EE7C1F12007A7
:100F70008B4022FA07FC4CEA030C20FA07F405FA2E
:100F800001F31C43FD404FEA1C4900FA01F3B5FB95
:100F9000F9F8200C1FFA8CFE09FB185540EA0545AC
:100FA00008FB0EF0A84202FA01F20BD91CEB050572
:100FB00008F1FF3A80F08880A84240F28580A8F1CD
:100FC000020865442D1AA4B2B5FBF9F009FB1055CF
:100FD00044EA054500FB0EFEAE4508D91CEB0505AD
:100FE00000F1FF346CD2AE456AD90238654440EA5C
:100FF0000840A0FB0294A5EB0E05A542C846A646F4
:1010000056D353D05EB1B3EB080265EB0E0505FA7B
:1010100007F722FA01F3CD401F43C6E9007500210E
:10102000BDE8F087C2F1200320FA03F10CFA02FCBC
:1010300025FA03F395400D434FEA1C471FFA8CFE37
:10104000B3FBF7F107FB11302B0C43EA004301FB24
:101050000EF0984204FA02F408D91CEB030301F1E4
:10106000FF382FD298422DD9023963441B1AADB2F2
:10107000B3FBF7F007FB103345EA034500FB0EF323
:10108000AB4208D91CEB050500F1FF3816D2AB4284
:1010900014D902386544ED1A40EA014138E7314677
:1010A000304607E78646E5E61846FAE64B45A9D2FC
:1010B000B9EB020864EB0C0E0138A3E74046EAE7FF
:1010C000204694E74146D1E7D0467BE7023B6544A2
:1010D00032E7084609E76444023842E7704700BF38
:1010E00082B0002301930093344A136843F48033A1
:1010F0001360324B1B6803F400330093019B0133F0
:101100000193009B1BB9019BB3F5A04FF1D12B4B71
:101110001B6813F4003F06D001230093009B012BB2
:1011200004D002B0704700230093F7E7234B1A6CFA
:1011300042F080521A6422490A6842F440420A602E
:101140009A689A609A6842F400429A609A6842F4F7
:10115000A0529A601B4A5A601A6842F080721A6064
:10116000164B1B6813F0007FFAD0154A136843F43E
:1011700080331360124B5B6813F4803FFAD0104A3F
:10118000136843F4003313600D4B5B6813F4003FA6
:10119000FAD00D4B40F205721A60A3F580639A688D
:1011A00022F003029A609A6842F002029A60034BAE
:1011B0009B6803F00C03082BF9D1B2E7003802401A
:1011C00000700040195A4007003C024008B50D4B22
:1011D0001A6842F001021A60002199601A6822F030
:1011E000847222F480321A60074A5A601A6822F424
:1011F00080221A60D960FFF773FF044B4FF0006242
:101200009A6008BD003802401030002400ED00E074
:1012100000230F2B4ED830B516E0C2681FFA83FEAC
:101220004FEA4E044FF0030E0EFA04FE22EA0E02BD
:10123000C260C26891F807E00EFA0CFC42EA0C02A8
:10124000C26001330F2B34D801229A400C68A243AC
:10125000F7D104684FEA430C032202FA0CF26FEA5A
:10126000020E24EA0202026002680C7904FA0CF40D
:10127000224302600A79013AD2B2012ACDD88268AB
:101280000EEA0202826082684C7904FA0CF422436E
:10129000826044689DB24FF0010E0EFA05FE24EA0A
:1012A0000E04446044688A79AA4092B222434260A4
:1012B000B3E730BD704700B501F007039B0002FAA9
:1012C00003FCC908083150F821204FF00F0E0EFA28
:1012D00003F322EA030340F8213050F8212042EAC8
:1012E0000C0240F821205DF804FB000010B4284BEC
:1012F0009B6803F00C03042B22D0082B23D013B1DE
:10130000244B036001E0234B0360214CA368C3F32B
:1013100003132149CB5CDAB20368D3404360A2686F
:10132000C2F382228A5CD2B223FA02F28260A268FD
:10133000C2F342328A5CD2B2D340C36010BC704761
:10134000164B0360E1E7124B59685A6802F03F02FE
:1013500011F4800F12D0114BB3FBF2F30C4A526818
:10136000C2F3881202FB03F3094A5268C2F3014236
:1013700001325200B3FBF2F30360C6E7054BB3FB47
:10138000F2F3034A5268C2F3881202FB03F3EBE75D
:10139000003802400024F4000000002040787D0165
:1013A00021B1054A136B184310637047024A136B4F
:1013B00023EA0000106370470038024021B1054A5B
:1013C000536C184350647047024A536C23EA000080
:1013D000506470470038024030B585B004460D4671
:1013E000038A9BB223F44053CA8813430382838940
:1013F0009BB223F4B05323F00C03898828896A89AF
:1014000001430A431343A381A38A9BB223F440738D
:10141000AA891343A3826846FFF768FF1F4B9C42CB
:1014200005D003F580639C4201D0029B00E0039B42
:10143000A28912F4004F1FD103EB830303EB830354
:101440002A689200B3FBF2F3154AA2FB0312520979
:101450001101642002FB1033A28912F4004F14D151
:101460001B0132330E4AA2FB0323C3F343130B4386
:101470009BB2238105B030BD03EB830303EB8303F1
:101480002A685200B3FBF2F3DEE7DB003233044A92
:10149000A2FB0323C3F342130B43E9E7001001400F
:1014A0001F85EB5129B183899BB243F4005383819B
:1014B000704783899BB223F400539BB283817047AA
:1014C000C1F30801818070478088C0F3080070472D
:1014D0000388194201D001207047002070470000A6
:1014E000DFF834D00D480E490E4A002302E0D458EC
:1014F000C4500433C4188C42F9D30B4A0B4C00235C
:1015000001E013600432A242FBD3FFF75FFE00F05C
:101510002DFA00F0F7F870470000032000000020CB
:10152000C00900201C830008C00900202C0A0020EC
:10153000FEE7000000B583B001210846FFF730FF49
:1015400001210420FFF72CFF0123009300238DF8D5
:1015500004308DF8073069460648FFF759FE4FF40E
:101560000053009369460448FFF752FE03B05DF84C
:1015700004FB00BF0000024000080240F0B583B049
:1015800001218020FFF70CFF01218020FFF708FFD9
:1015900001218020FFF704FF4FF4806700970122AC
:1015A0008DF8042000238DF806308DF807208DF883
:1015B00005300C4C69462046FFF72AFE4FF40066C2
:1015C000009669462046FFF723FE4FF480550095AC
:1015D00069462046FFF71CFE27832683258303B038
:1015E000F0BD00BF001C0240F0B587B001210846E5
:1015F000FFF7D6FE01211020FFF7E0FE00248DF852
:10160000164001278DF8177002268DF815608DF8A9
:1016100014604FF400730493194D04A92846FFF792
:10162000F7FD8DF814604FF48063049304A92846F5
:10163000FFF7EEFD07220A212846FFF73CFE0722AE
:1016400009212846FFF737FE4FF4E1330093ADF848
:101650000440ADF80640ADF80840ADF80C400C234E
:10166000ADF80A3004F1804404F588346946204618
:10167000FFF7B2FE39462046FFF714FF07B0F0BD72
:101680000000024008B5134800F048FA4FF4E13179
:10169000114800F0E1F9114800F040FA104800F05C
:1016A0003DFA104800F03AFA0F4800F037FA0F48B8
:1016B00000F034FA0E4800F031FA0E4800F02EFA2D
:1016C0000D4800F02BFA0D4800F028FA0C4800F005
:1016D00025FA08BD987D0008C87D0008EC7D00084B
:1016E0001C7E0008387E0008507E0008687E0008D6
:1016F000807E0008987E0008B07E0008C87E000842
:10170000E07E000810B5FFF739FFFFF713FFFFF782
:101710006BFF3E4800F080F8FFF7B4FF09E03C4B58
:101720004FF480625A834FF400621A834FF4805260
:101730001A8300F013F9C4B22146364800F08CF940
:10174000313C072C5FD801A353F824F01F17000881
:101750006D1700088317000899170008AF170008D5
:10176000C5170008DB170008F1170008284B4FF4D5
:1017700080621A834FF400625A834FF480521A83B6
:10178000D7E7234B4FF480621A834FF400621A8329
:101790004FF480525A83CCE71D4B4FF480625A833A
:1017A0004FF400625A834FF480521A83C1E7184BFA
:1017B0004FF480625A834FF400621A834FF48052D0
:1017C0005A83B6E7124B4FF480621A834FF40062DB
:1017D0005A834FF480525A83ABE70D4B4FF480622B
:1017E0005A834FF400625A834FF480525A83A0E721
:1017F000074B4FF480621A834FF400621A834FF450
:1018000080521A8395E7FFF73DFF92E700100140F1
:10181000001C0240F87E000810B5094B1860094C06
:101820002068002302221946806800F07FF92068B2
:10183000002302221946406800F078F910BD00BF6D
:10184000DC0900201000002010B50446C1B2064B90
:101850001868FFF735FE8021034B1868FFF738FE44
:101860000028F8D0204610BDDC09002008B5202152
:10187000054B1868FFF72CFE0028F8D0024B1868BB
:10188000FFF722FE08BD00BFDC0900207047FEE71D
:10189000FEE7FEE7FEE7704770477047704701209C
:1018A000704708B500F054F8162303604FF0FF307E
:1018B00008BD08B54FF0FF31FFF7F3FFFEE770B545
:1018C0000C461646002506E0FFF7D0FF214601F83A
:1018D000010B01350C46B542F6DB304670BD70B5E4
:1018E0000C461646002504E014F8010BFFF7ACFF88
:1018F0000135B542F8DB304670BD000008B503463F
:101900000B4A126842B10A4A106803446A4693427D
:1019100006D8074A136008BD054A06491160F2E778
:1019200000F016F80C2303604FF0FF30F3E700BF20
:10193000E0090020300A00204FF0FF3070474FF4DC
:1019400000534B6000207047012070470020704713
:10195000014B1868704700BF10000020024B186848
:10196000416803F087BC00BF1000002070B50D4E29
:101970000D4D761BB61006D0002455F8043B0134FB
:101980009847A642F9D1094E094D761B06F0F8F9A1
:10199000B61006D0002455F8043B01349847A642FF
:1019A000F9D170BD10830008108300081883000867
:1019B00010830008830730B548D0541E002A3FD05A
:1019C000CAB2034601E0013C3AD303F8012B9D075C
:1019D000F9D1032C2DD9CDB245EA05250F2C45EAC6
:1019E000054536D9A4F1100222F00F0C03F1200EA8
:1019F000E6444FEA121C03F1100242E9045542E9A1
:101A0000025510327245F8D10CF1010214F00C0F9E
:101A100003EB021204F00F0C13D0ACF1040323F01B
:101A200003030433134442F8045B9342FBD10CF0EC
:101A300003042CB1CAB21C4403F8012B9C42FBD115
:101A400030BD64461346002CF4D1F9E70346144632
:101A5000BFE71A46A446E0E70FB400B5074983B0D4
:101A600004AB086853F8042B8168019300F036F941
:101A700003B05DF804EB04B0704700BF1000002015
:101A800070B5054688B008460C46FEF7B9FB224EF5
:101A9000AA6B059001214318CDE9066104A8022133
:101AA00004940393AC680190029122B3636E13F027
:101AB000010FB4F90C309AB201D1980525D59104E3
:101AC00006D4626E43F4005322F40052A38162668E
:101AD000284601AA214603F015FA636E002814BFB8
:101AE0004FF0FF350A25DA0702D4A3899B0506D5F6
:101AF000284608B070BD284603F006F8D6E7A06D6A
:101B000003F0F2FB284608B070BDA06D03F0EAFBBD
:101B1000B4F90C309AB2D2E70C7F0008024B0146B0
:101B20001868FFF7ADBF00BF100000202DE9F0439B
:101B3000694CD4F8008083B004460E4617461D4613
:101B4000B8F1000F03D0D8F83830002B77D0022F2F
:101B500005D0012F00F2AC80002DC0F2A980636E89
:101B6000DA0752D52146404602F060FF216B41B1B1
:101B700004F14003994202D0404603F0BDF800232F
:101B80002363B4F90CC000231CF0800FA3616360D1
:101B900064D12CF44A6C2CF0030C022FA4F80CC076
:101BA0006AD001AB6A462146404603F00FFCA38988
:101BB0001843A081002D2FD0002E2ED0D8F8383019
:101BC000002B38D0009B2660AB42B4F90C301CBF10
:101BD00043F40063A381012F04BF43F00103A381F9
:101BE0009AB213F00803C4E904652CD0D1075DD57F
:101BF0006D42A561656E002315F00105A36027D035
:101C00000025284603B0BDE8F083A3899B05A9D42D
:101C1000A06D03F067FBA5E7009D284603F006FCD6
:101C20000646002847D0A38943F08003A381D8F853
:101C30003830002BC6D1404602F066FFC2E740466E
:101C400002F062FF83E7A360656E15F00105D7D14E
:101C5000930524D5284603B0BDE8F08321694046AA
:101C600003F04AF8B4F90CC02CF44A6C2CF0030CC5
:101C7000022FA4F80CC094D10025002204F14303E4
:101C8000A2600122C4E904322360636E4CF0020CAE
:101C9000D807A4F80CC0DDD41CF4007FDAD1A06D05
:101CA00003F022FB284603B0BDE8F083A560CBE734
:101CB0004FF0FF35CEE7DDF80090A94504D0484647
:101CC00003F0B4FB064620B9B4F90CC04FF0FF3561
:101CD000D3E74D46A7E700BF100000202DE9F04FE5
:101CE000D5B01C46079191460546099003F0F2FADB
:101CF0000268179210460E94FEF782FA16901DB1F4
:101D0000AB6B002B00F02A82079A536EDD0740F17F
:101D10003881B2F90C2091B28F0409D4079B42F4A8
:101D200000529A8191B21A465B6E23F400535366B7
:101D30000E0740F1CB80079B1B69002B00F0C6808B
:101D400001F01A030A2B00F0CF8000242BAB4D4684
:101D5000CDE92944CDE91944CDE91B4412942893D7
:101D60009846189400230B940024CDE914342B7862
:101D7000002B00F09D81AA4604E01AF8013F002BD9
:101D800000F0C780252BF8D1BAEB050640F0C580DE
:101D90009AF80030002B00F08B8100234FF0FF32C7
:101DA0009AF801608DF883300A930AF1010A0892CB
:101DB0001F462B244FF020090AF1010AA6F1200347
:101DC0005A2B00F2ED80DFE813F0EB02EB00EB00A2
:101DD000E602EB00EB00EB006A00EB00EB005C02BC
:101DE0008002EB0067028A02EB0085025B005B0069
:101DF0005B005B005B005B005B005B005B00EB007B
:101E0000EB00EB00EB00EB00EB00EB007A01EB00EA
:101E1000F801D2017A017A017A01EB00EB00EB00C4
:101E2000EB00E102EB00EB002D02EB00EB00EB001E
:101E30000202EB00A402EB00EB008307EB00EB00D7
:101E4000EB00EB00EB00EB00EB00EB007A01EB00AA
:101E5000F801D4017A017A017A01C702D401CD01D7
:101E6000EB00D402EB006C022F02B502CD01EB00B7
:101E700002027E008007EB00EB006107EB007E00B2
:101E8000A6F1300300221AF8016B02EB820203EB89
:101E90004202A6F13003092BF5D90A928EE7DDF84C
:101EA00024B0584603F016FA43681B931846FEF711
:101EB000A7F91C900646584603F00CFA836819935C
:101EC000002E40F0CD869AF8006075E7079D0998CE
:101ED000294601F0ADFC002841F01C83A98901F0DE
:101EE0001A030A2B7FF431AF079AB2F90E30002B98
:101EF000FFF62BAF536ED80702D4890541F13B8121
:101F00000799099823464A4655B0BDE8F04F01F0BD
:101F10004FBCBAEB050600F0CB802A9B33442A93D2
:101F2000299B0133072BC8E90056299305DC08F1EA
:101F300008080B9B33440B932AE70799099828AAB2
:101F400004F062FC80B90DF1AC08F2E7079909983A
:101F500028AA04F059FC002800F09B800D9B1BB1BF
:101F60000998194602F0C8FE079A536ED90740F146
:101F7000EA8093895B0601F1D9820B9855B0BDE8E0
:101F8000F08F079BB3F90C20900591B23FF5C4AEDA
:101F90001D46986D03F0A6F9B5F90C2091B2BBE689
:101FA000002E00F0858000228DF8EC608DF88320F3
:101FB0000123CDE90C32069308920F9213921092EE
:101FC0003BAD17F0020302D006990231069117F0DB
:101FD000840B07D10A990698A1EB0009B9F1000F0B
:101FE00000F370832A9C8AB1299A0DF18301013292
:101FF0000134C8F80010072A4FF001012A942992F1
:10200000C8F8041000F3B68308F1080883B1299BCF
:1020100021AA01330234C8F80020072B4FF0020236
:102020002A942993C8F8042000F3B28308F1080821
:10203000BBF1800F00F06982089B0C9AA3EB020BA6
:10204000BBF1000F00F3AA82FB0500F100820C9B9C
:10205000C8F804301C44299BC8F800500133072BF2
:102060002A94299300F3228308F10808780705D5FC
:102070000A9B069A9D1A002D00F39683DDE90A2338
:1020800006998A42ACBF9B185B180B93002C7FF417
:102090005DAF002329930D9B1BB10D99099802F0A8
:1020A0002BFE0DF1AC0855462B78002B7FF463AE68
:1020B0002A9B002B41F0D3810023299354E70E9BE8
:1020C000073323F00702F2E80234CDE91434DDE9E6
:1020D000143424F000440E92994618462146B54B1C
:1020E0004FF0FF32FEF73CFE002840F0EF84B14B8A
:1020F000484621464FF0FF32FEF714FE002840F01C
:10210000E584DDE9140100220023FEF701FE00282A
:1021100040F067879DF88320A74DA84B27F08007E4
:102120000321472EC8BF1D4600230D9306910C9135
:1021300008930F9313931093002A3FF442AF069B2A
:10214000013306933DE7079B9B899A053FF512AF44
:10215000079CA06D03F0C8F8A3890BE7099802F06B
:10216000D3FCD1E59AF8006047F0200724E647F059
:102170001007BA060E9B40F13B84073323F0070398
:102180001A465B6852F8084B0E929946002BC0F233
:102190004C84089B013300F0D88254EA090327F0ED
:1021A000800B40F0D382089B002B40F0D4825F4626
:1021B000002308930C9354AD1DE10E9B002253F8AD
:1021C000041B8DF883208DF8EC100E93F0E60E9C26
:1021D000089B54F8045B4FF000098DF88390002DA4
:1021E00000F093855A1C00F051861A46494628464D
:1021F000FEF776F80D90002801F00E810D9BCDF8CA
:1022000020905B1B0C930E9423EAE3739DF88320CC
:102210000693CDF83490CDF83C90CDF84C90CDF8A5
:10222000409089E747F0100717F0200900F0D283AB
:102230000E9B073323F00703D3F8049053F8084BA1
:102240000E9327F4806B002300228DF88320089AD8
:10225000511C00F0B88054EA09012BF0800740F0CF
:10226000B180002A40F0F685002BA1D11BF00103BC
:102270000C9300F0148430238DF84F310DF24F157C
:10228000B9E00E9B53F8042B0A92002A80F2DA83FD
:102290000A9A0E9352420A929AF8006047F0040795
:1022A0008AE5BD0600F1D184FC0600F1D8857806E8
:1022B00000F1A586B90540F1D2850E9B0B9953F824
:1022C000042B0E9311705546EEE69AF800608DF8D7
:1022D000834071E59AF8006047F080076CE552464C
:1022E00012F8016B2A2E01F03F82A6F13003092B70
:1022F000924698BF002201F2BC801AF8016B02EBF3
:10230000820203EB4202A6F13003092BF5D90892B1
:1023100054E547F0100B1BF0200900F076830E9B6C
:10232000073323F00703D3F8049053F8084B0E93B8
:10233000012389E70E9B53F8044B0E933023782634
:102340008DF884301E4B189347F0020B8DF8856092
:102350004FF00009022377E79AF80060682E03BF68
:102360009AF8016047F400770AF1010A47F0400744
:1023700022E59AF800606C2E03BF9AF8016047F0DE
:1023800020070AF1010A47F0100715E59AF80060E6
:1023900047F0080710E59AF8006047F001070BE5E1
:1023A0009DF88330002B7FF48EAD9AF800608DF895
:1023B000839001E5FFFFEF7F107F0008147F000886
:1023C000207F0008BB46012B00F0C081022B54ADDA
:1023D00020D1189A04F00F032409D35C05F8013DBD
:1023E00044EA09744FEA191954EA0903F2D154ABCB
:1023F0005B1B5F460C9308990C989DF883208142E3
:102400004FF00003B8BF01460D9306910F9313934D
:10241000109391E604F00703E40844EA49744FEA94
:10242000D909303354EA09012A4605F8013DF1D1B2
:102430001BF0010FDBD0302BD9D03023023A05F846
:10244000013C54AB9B1A5F460C931546D3E7652EAF
:1024500040F3E680DDE9140100220023FEF74EFC84
:10246000002800F0DC81299BBF4AC8F80020013316
:1024700001340122072B2A942993C8F8042000F381
:10248000CC8408F10808229B129A934280F2D682EB
:10249000169B179A1C44C8E90023299B2A940133F0
:1024A000072B299300F3248408F10808129B5D1E72
:1024B000002D7FF7DBAD102D299BDFF8B09240F3A4
:1024C000BD8449462246B946DDF824B0079C102653
:1024D0000F4605E008F10808103D102D40F3AA84CE
:1024E00001331032072BC8E90076CDE92932F1DD3E
:1024F00028AA2146584604F087F900287FF42EAD1B
:10250000DDE929320DF1AC08E6E70A9B069AA3EB58
:10251000020BBBF1000F7FF78FADBBF1100F299AB3
:10252000DFF848922CDD1D9621464E46079CDDF8CB
:102530002490102306E0ABF1100BBBF1100F08F153
:1025400008081ADD01321031072AC8E90063CDE915
:102550002921F0DD28AA214648460DF1AC0804F0F7
:1025600053F900287FF4FAACABF1100BBBF1100F5C
:10257000DDE929214FF01003E4DCB1461D9E0C4635
:1025800001325C44072ACDE92924C8F80090C8F834
:1025900004B000F3A08308F108084DE5BBF1100F6B
:1025A000299ADFF8C8912DDD41462046A8464C46C1
:1025B000079DDDF82490102306E0ABF1100BBBF172
:1025C000100F01F1080119DD01321030072AC1E9AD
:1025D0000043CDE92920F0DD28AA2946484604F029
:1025E00013F900287FF4BAACABF1100BBBF1100F5C
:1025F000DDE929202BA94FF01003E5DC4546A14673
:102600008846044601325C44072ACDE92924C8F8EB
:102610000090C8F804B000F3D08108F1080813E571
:10262000129B012B40F38081299EC8F8005001368F
:1026300001340123072E2A942996C8F8043000F3A8
:102640007C8308F10808169B179A01361C44072E54
:10265000C8E90023CDE9296400F37C8308F1080868
:10266000DDE9140100220023FEF748FB002840F0BA
:102670007881129B0136013B01351C44072EC8F8B6
:1026800000502996C8F804302A9400F35D8108F1BF
:1026900008081A9BC8F8043001361C44072E24ABE6
:1026A000CDE92964C8F800307FF7DEAC07990998B6
:1026B00028AA04F0A9F800287FF450AC2A9C0DF158
:1026C000AC08D3E4B9F1100FDDE929212BDDCDE908
:1026D0001D3B1F96DDF824B04E461024A946079DE9
:1026E00004E0103E102E08F1080817DD0132204BDF
:1026F0001031072AC8E90034CDE92921F1DD28AAE3
:10270000294658460DF1AC0804F07EF800287FF405
:1027100025AC103E102EDDE92921E7DCDDE91D3B6B
:102720004D46B1461F9EC8F80490013209EB0104E2
:10273000072A0F49C8F80010CDE9292400F3518376
:102740009DF8832008F108084DE4BB460A2C79F176
:10275000000380F00C83303401238DF84F415F4635
:102760000C930DF24F1546E6507F0008647F000879
:10277000547F0008079909981D9328AA04F044F88B
:1027800000287FF4EBAB2A9C1D9B0DF1AC083DE4C7
:102790000799099828AA04F037F800287FF4DEABDF
:1027A0002A9C0DF1AC0843E4102D299B21DD099FE3
:1027B000DDF81C90102604E0103D102D08F10808EB
:1027C00017DD0133BB4A1034072BC8E90026CDE9D9
:1027D0002934F1DD28AA494638460DF1AC0804F049
:1027E00013F800287FF4BAAB103D102DDDE9293431
:1027F000E7DC0133AF4AC8F804502C44072BCDE97D
:102800002934C8F800207FF739AC0799099828AA1D
:1028100003F0FAFF00287FF4A1AB2A9C2EE4229952
:10282000002940F31481DDF84090129B9945A8BF20
:102830009946B9F1000F0BDD299B01334C44072B5E
:10284000C8E900592A94299300F39A8508F10808E9
:10285000109EB9F1000FA8BFA6EB0906002E00F3E9
:102860004683DDF840B07905AB4400F1CE84229B6D
:10287000129A934202DBFA0740F1B883169A17992D
:102880001444C8E90012299A2A940132072A29928D
:1028900000F3838508F10808129AAE18A6EB0B0620
:1028A000D51AAE42A8BF2E46002E0DDD299BC8F8D2
:1028B00000B001333444072BC8F804602A942993EC
:1028C00000F3F18508F10808002EA8BFAD1B002D0C
:1028D0007FF7CCAB102D299BDFF8DC9140F3AE8263
:1028E00049462246B946DDF824B0079C10260F461B
:1028F00005E008F10808103D102D40F39B820133DC
:102900001032072BC8E90076CDE92932F1DD28AA7B
:102910002146584603F078FF00287FF41FABDDE91D
:1029200029320DF1AC08E6E7FE073FF57DAE299EA2
:10293000C8F80050013601340123072E2A94299645
:10294000C8F804307FF7A3AE0799099828AA03F0C6
:102950005BFF00287FF402ABDDE929640DF1AC08D0
:1029600097E6129B5D1E002D7FF793AE102DDFF8CA
:10297000489140F37F8222460897099C079F4FF0B9
:10298000100B05E008F10808103D102D40F370828F
:1029900001361032072EC8E9009BCDE92962F1DD2E
:1029A00028AA3946204603F02FFF00287FF4D6AA34
:1029B000DDE929620DF1AC08E6E70799099828AA34
:1029C00003F022FF00287FF4C9AA2A9C0DF1AC086D
:1029D000FFF73ABB17F0100372D117F0400200F076
:1029E000BD820E9A52F8044B0E929946A4B228E486
:1029F00053F8044B0E93FB0656D47D0651D544F391
:102A0000C0394B4624B2FFF7C1BB1BF0100340F0A6
:102A100036811BF0400200F092820E9A52F8044B6D
:102A20000E929946A4B201230EE42D2364428DF840
:102A3000833069EB4909BB46012308E4F8077FF5B9
:102A400015AB25E59AF800600E93FFF7B5B9299B01
:102A50001A4AC8F80020013301340122072B2A94B6
:102A60002993C8F8042000F3708408F108080029AD
:102A700040F01E82129A07F0010313433FF4F6AAB6
:102A8000169B1799E218C8E90013299B2A92013373
:102A9000072B299300F3618308F1080819E254AD6C
:102AA000A9E4B80500F1B4824FEAE4794B46FFF798
:102AB0006DBB00BF547F0008647F0008507F000892
:102AC0000E9B53F8044B0E93FFF7BBBBDDE91401DB
:102AD00002460B46FEF744F9002840F0A085612E1F
:102AE00000F05085412E00F09982089B013326F0BA
:102AF0002003069300F08F85472B00F07985DDE9F0
:102B0000141247F480730F931346002BC0F2ED8527
:102B10000C9300231D938B460D93069B462B00F0D0
:102B20004A84452B00F04F850899019126A904910C
:102B300023A9039122A9029102210C9B09980091DB
:102B40005A4600F081FF069B472B054640F01C8645
:102B500017F0010FB9460F9F40F0D984269B5B1BED
:102B60001293069B472B00F01883069B462B00F020
:102B70005F84229B1093109B069A013B412A22936B
:102B800000F0AA85F2B20021002BB8BF109B8DF88F
:102B90009020BABFC3F101032D222B22092B8DF8FF
:102BA000912040F363850DF19F04BD4F22461046EE
:102BB00087FB0321DA17C2EBA10202EB8201A3EB30
:102BC0004101303100F8011C19466329134600F118
:102BD000FF32ECDC3033D9B2831E9C4202F8011C78
:102BE00040F2CE8513460DF1920201E013F8011B6D
:102BF00002F8011B9C42F9D10DF1A1030DF19202E3
:102C00001B1A134424AA9B1A1A93129B1A9A012B7B
:102C10001A440C9240F372850C9B169A13440C9341
:102C20000C9A002329F4806722EAE27247F4807745
:102C30000F930692139310931D9B002B40F0DE829E
:102C40009DF883200893FFF777BA0E9B0B9853F8F3
:102C5000041B0E93C217C1E900025546FFF724BAC0
:102C6000199B002B3FF42FA9199B1B78002B3FF4D5
:102C70002AA99AF8006047F48067FFF79DB80E9B79
:102C800053F8044B0E930123FFF7DEBA854B1893DC
:102C900017F0200949D00E9B073323F00703D3F820
:102CA000049053F8084B0E93F80709D554EA09032A
:102CB00006D030238DF8856047F002078DF8843008
:102CC00027F4806B0223FFF7BFBABB46FFF723BB95
:102CD000754B1893DCE70799099828AA03F094FD2F
:102CE00000287FF43BA92A9C0DF1AC08FFF7A4B99A
:102CF0000799099828AA03F087FD00287FF42EA9D8
:102D00002A9C0DF1AC08FFF7D1BB062B294628BF42
:102D1000062308950D952A460693644D0E940C9350
:102D20000F9113911091FFF707BA17F0100369D0B4
:102D30000E9B53F8044B0E93B6E70799099828AAFF
:102D400003F062FD00287FF409A9DDE929640DF193
:102D5000AC0878E40799099828AA03F055FD0028E3
:102D60007FF4FCA8DDE929640DF1AC0878E40BF4EC
:102D700080630022CDE90CA80696DDF8648054AF8C
:102D800016469A460CE00023204649460A22FEF7E2
:102D900025F80A2C79F100031BD3044689462F46F7
:102DA00020460A2200234946FEF718F830327D1EDD
:102DB000013607F8012CBAF1000FE4D098F8003082
:102DC0009E42E0D1FF2EDED00A2C79F1000380F084
:102DD000F480CDF864801296DDE90CA8069EFFF71A
:102DE00006BB079909981D9328AA03F00DFD00283A
:102DF0007FF4B4A89DF883202A9C1D9B0DF1AC089C
:102E0000FFF7F1B817F0400200F0B6800E9A52F8C2
:102E1000044B0E929946A4B246E70799099828AA4E
:102E200003F0F2FC00287FF499A82A9C0DF1AC086D
:102E3000FFF729BB14463A464F46914601332C44CE
:102E4000072BC8F80090C8F80450CDE929347FF763
:102E50000BA92BE4012BBB467FF4B8AA7BE40E9BA5
:102E60000B9953F8042B554611600E93FFF71CB9CC
:102E7000089F144601362C44072ECDE92964C8F872
:102E80000090C8F804507FF702AC5DE52846CDF805
:102E900020900E94FDF7B4F903460C90FFF7B4B9F7
:102EA00067666666207F0008347F0008487F000858
:102EB000169B1798E218C8E90003299B2A92013350
:102EC000072B299300F3498108F108080029C0F273
:102ED000FA821299C8F8005001338C18072BCDE9FB
:102EE0002934C8F804107FF7BFA8FFF7DFBB102E06
:102EF000299BDFF8C09252DD484642462146A8464B
:102F0000B946099C079D4FF0100B074603E00832B5
:102F1000103E102E3DDD01331031072BC2E9007B3E
:102F2000CDE92931F3DD28AA2946204603F06CFCBF
:102F300000287FF413A8DDE929312BAAE8E70E9BCE
:102F40001BF4007914BF53F8044B53F8044B0E9351
:102F50001CBF9146E4B20123FFF776B90E9B17F42C
:102F6000007914BF53F8044B53F8044B0E931CBF65
:102F70009146E4B2FFF765B90E9B17F4007914BFD0
:102F800053F8044B53F8044B0E931CBF9146E4B224
:102F90008AE6454690463A460C464F4691460133EE
:102FA0003444072BCDE92934C8F80090C8F80460F0
:102FB00000F3E68008F1080853E41C9B1B99ED1A06
:102FC0001A46284603F0B2FB98F801300BB108F11D
:102FD0000108204649460A2200230026FDF7FEFE8E
:102FE000DBE62D228DF88320FFF796B8129AAE18F3
:102FF000A6EB0B06D51AAE42A8BF2E4664E40E9B84
:103000000B9953F8042B0E9311805546FFF74CB8DB
:1030100044F3C0194B4664B2FFF7B8B830238DF8BB
:10302000843058238DF88530089B632B47F00204C9
:1030300000F39B8200230D933BADDDE9141247F4AE
:1030400081730F931346002B2746C0F220820C9306
:1030500026F02003069300238B461D93612E00F07B
:10306000ED82412E7FF459AD22AA0C99584603F007
:10307000CDFA00224FF07F53FDF7D8FB02460B46F6
:10308000CDE9102300220023FDF738FE08B101230B
:103090002293494B0C93089BCDE912A6CDE91E78EB
:1030A000DDF830A0DDE9106703F1FF39AB4610957C
:1030B00006E00022002309F1FF39FDF71FFEE8B901
:1030C0003E4B002230463946FDF7B0FB0F46064620
:1030D000FDF75CFE0446FDF73FFB0B460246394612
:1030E0003046FDF7EBF91AF80430B9F1FF3FD84646
:1030F0004D460BF8013B06460F46DAD130463946BD
:103100002F4BDDF848A0139ECDF848800022A94639
:10311000DDF87C80109D1E9FCDE91001FDF716FEA5
:10312000002840F03482DDE91001254B0022FDF734
:10313000E5FD10B1E10700F12A824B46002B06DBCA
:1031400001335B4430220BF8012B5B45FBD1ABEB29
:103150000503B94612930F9F03E50799099828AA1A
:1031600003F052FB00287EF4F9AEDDE92932229902
:103170000DF1AC08AAE6906D02F0B6F8FEF7C0BEFD
:103180000799099828AA03F03FFB00287EF4E6AED1
:103190002A9C0DF1AC08FFF764BB229B1093DA1C4C
:1031A00002DB089A93420DDD023E26F020030693CF
:1031B000E1E400BF647F0008347F00080000304075
:1031C0000000E03F109B129A9342C0F2568119F022
:1031D000010F00F08782169A13440C9319F4806F44
:1031E00003D0109B002B00F350820C9B23EAE37367
:1031F0000693672600230F9313931DE52D220023CA
:103200008DF883200893FEF79ABF129BCDF830A06B
:103210004246DDF84C801097EB1808935E46199FE4
:10322000DDF87090DDF824A0DDF81CB00F9B13953D
:103230002146B8F1000F2ED0002B6BD1013F08F1D1
:10324000FF381B9BC2E90039299B01334944072BF6
:103250002A91299362DC0832089B38789B1B8342B1
:10326000A8BF0346002B1C460ADD299801301944EB
:103270000728C2E900632A9129905ADC387808327D
:10328000002CACBF051B0546002D15DC06440F9B2A
:10329000B8F1000FD0D1002B3CD1DDE91235EB188D
:1032A0009E421997B346DDF830A0109F90460C4619
:1032B00028BF9B46FFF7DBBA102D29981DDD10248F
:1032C00004E0103D102D02F1080216DD0130AC4B78
:1032D00010310728C2E90034CDE92901F1DD28AA1F
:1032E0005946504603F090FA00287EF437AE103D60
:1032F000102DDDE929012BAAE8DC0130A04B556037
:1033000029440728CDE9290113602CDC38780832DC
:103310000644BCE70F9B013B0F9392E728AA59464E
:10332000504603F071FA00287EF418AE2A992BAAB1
:1033300092E728AA5946504603F066FA00287EF420
:103340000DAE38782A992BAA9AE70799099828AAE6
:1033500003F05AFA00287EF401AE22992A9C0DF15E
:10336000AC08FFF784BB28AA5946504603F04CFA34
:1033700000287EF4F3AD38782A992BAA064486E714
:103380000799099828AA03F03FFA00287EF4E6ADD1
:103390002A9C0DF1AC08FFF75BBA0799099828AA97
:1033A00003F032FA00287EF4D9AD229B2A9C0DF15D
:1033B000AC08FFF771BA0899019126A9049123A9D5
:1033C000039122A9029103210C9B099800915A466E
:1033D00000F03AFB0378302B054600F09581229BE4
:1033E000089AB94613440F9FEC180C9958460022CE
:1033F0000023FDF783FC10B12346FFF7B0BB269BEB
:10340000A342BFF4ACAB30215A1C26921970269B04
:103410009C42F9D8FFF7A3BB089B9DF883200E942C
:1034200006930C9308900F9013901090FEF784BEB3
:10343000229A1092002A40F38181089909F0010331
:103440000B4340F05581109B0C93662619F4806F56
:1034500040F01C810C9B23EAE3730693CAE60799AC
:10346000099828AA03F0D0F900283EF425AEFEF70B
:103470007BBD00230893FEF7A1BC129B169A9A18F5
:10348000109B0C92002B40F34D816726DEE726F05F
:1034900020030693DDE914349B4604F100430C93AA
:1034A0002D231D93DAE50799099828AA03F0ACF9B2
:1034B00000287EF453AD229D129B2A9C5D1B0DF1CA
:1034C000AC08FFF701BA4E421031DFF8B49034DA9D
:1034D0004146DDF824B0A8461024079D03E00831DA
:1034E000103E102E27DD01331032072BC1E9009466
:1034F000CDE92932F3DD28AA2946584603F084F99C
:1035000000287EF42BADDDE929322BA9E8E7089BE2
:10351000EC186AE7079B5B6EDD0707D4079B9B8966
:103520009C0503D4079B986D01F0DEFE4FF0FF333E
:103530000B93FEF722BD4546884601333244072BE4
:10354000CDE92932C8F80090C8F804607FF7A4AA32
:103550000799099828AA03F057F900287EF4FEACD1
:10356000DDE929320DF1AC08B3E40998591C01F0EA
:1035700065FF0546002800F00D810D905DE500BF58
:10358000647F000830238DF8843078234AE5129B4D
:1035900026930C9B1BF8012CD97B8A425B4609D1F0
:1035A000302003F8010C269B5A1E269213F8012C9A
:1035B0009142F6D0392A0BBF0C9A0132927AD2B2DC
:1035C00003F8012CC3E508990C9B09984C1C26A90B
:1035D000049123A9039122A9029102215A46019440
:1035E000009100F031FA0546B9462C440F9FFCE6E5
:1035F000089B002B08BF0123089347F480730F93A7
:10360000159B002BC0F2AE80DDF850B01D900C93DE
:103610000D90FFF789BA06230893FFF770BA159B40
:10362000604D002BB4BF2D229DF883205E4BB8BFA8
:103630008DF8832027F08007FEF772BD22AA0C992F
:10364000584602F0E3FF00224FF07F53FDF7EEF8FB
:1036500002460B46CDE9102300220023FDF74EFB66
:1036600008B101232293514B0C9314E5002962D138
:1036700030228DF892200DF19302303302F8013B95
:1036800024ABD31A1A93FFF7C0BA672619990B789F
:10369000FF2B7BD00024109A204603E0013001313B
:1036A000FF2B08D0934206DAD21A4B78002BF5D1C3
:1036B0000B780134F4E71991109213900F940F9A3C
:1036C000139B1C9913440C9A01FB03230C9323EACC
:1036D000E3730693FFF7B0BA06F10F02D2B20121ED
:1036E000FFF752BA109B0C9378E500230D93D1E6B7
:1036F000169BD31819440C916626A7E619F0010F02
:103700003FF48EAAFFF788BA0C995846002200238E
:10371000FDF7F4FA00287FF462AE089BC3F10103C1
:1037200022935DE6C3F101031A4422EAE2730C928C
:10373000069367265EE50DF192029EE7089A09F06E
:10374000010959EA020304D10123069366260C936A
:1037500050E5169B01331A4422EAE2730C92069359
:10376000662647E50D9095E60E9B9AF80160924615
:1037700053F8042B0E9342EAE2720892FEF71CBB48
:1037800002231A93FFF741BA089C2DE700230F93F9
:10379000139394E7079A938943F040039381FEF7CC
:1037A000E3BB00BF187F00081C7F0008207F0008D3
:1037B000F0B51F468B89ADF26C4D23F00203ADF8D6
:1037C0000C304B6E1993CB89ADF80E30CB69079353
:1037D0004B6A09931AAB009304934FF48063154628
:1037E00006460293059316A800230C46069301F0A3
:1037F00075FD2A463B4669463046FEF76FFA051EC0
:1038000007DB6946304601F011F9002818BF4FF078
:10381000FF35BDF80C305B0603D5A38943F04003A8
:10382000A381169801F05CFD28460DF26C4DF0BDA9
:1038300038B5334B1B6805460C460BB19A6B12B377
:10384000B4F90C3018079AB225D5216900292DD07A
:1038500012F0010007D00020A06060694042A06122
:1038600039B1002038BD950758BF6069A0600029B4
:10387000F7D1120658BF0846F4D543F04003A381A0
:103880004FF0FF3038BD184601F03EF9B4F90C3066
:1038900018079AB2D9D4D1062AD5520714D421696F
:1038A00043F00803A3819AB20029D1D102F4207019
:1038B000B0F5007FCCD02146284601F017FDB4F9C1
:1038C0000C3021699AB2C3E7216B51B104F1400277
:1038D000914204D0284601F00FFAB4F90C300022CE
:1038E000226321690022C4E9001223F02403D7E7F0
:1038F000092243F040032A604FF0FF30A38138BD16
:1039000010000020024B13B1024800F005B87047C8
:10391000000000002D4C0008002301461A461846FE
:1039200003F0A2BE2DE9F04F03690C69A34283B0F6
:10393000C0F28680013C01F11405A30000F11408D7
:10394000009355F8243058F8242001338A469A42CF
:1039500008EB8401814605EB84070191B2FBF3F685
:1039600038D30023AE4640469B465EF8041B0268EF
:103970001FFA81FC06FB0C33090C4FEA134C06FBC3
:1039800001CC99B2ABEB01011FFA8CF311FA82F171
:10399000C3EB124202EB214289B241EA0241774570
:1039A00040F8041B4FEA1C434FEA224BDDD2009B38
:1039B00058F8033073B9019B043B984504D307E0E2
:1039C000984504F1FF3403D253F80429002AF7D0B4
:1039D000C9F810405146484602F0EAFA00282BDBAD
:1039E00001364046002355F8041BD0F800C08AB2C7
:1039F0009A1A0B0C12FA8CF2C3EB1C4303EB224312
:103A000092B242EA0342AF4240F8042B4FEA23430A
:103A1000E9D258F8242008EB84036AB9043B98459E
:103A200004D307E0984504F1FF3403D253F8042986
:103A3000002AF7D0C9F81040304603B0BDE8F08F37
:103A4000002003B0BDE8F08F2DE9F04F016C99B074
:103A500090469946CDE90489259D044641B1426CC2
:103A60004A60012393408B6002F046F800232364F0
:103A7000B9F1000AB4BF012300232B60764BBCBF11
:103A80002AF0004ACDF814A033EA0A0300F0AA8015
:103A9000DDE904231046194600220023CDE90A017E
:103AA000FDF72CF9074670B1249A01231360269B79
:103AB000002B00F0E48269481860431E03930398CA
:103AC00019B0BDE8F08F16AB019317AB00932046F9
:103AD000DDE90A2302F032FB5FEA1A56054640F0A0
:103AE0009780DDE916763E4406F23240202840F306
:103AF000B583C0F140000AFA00FA06F2124028FA33
:103B000000F04AEA0000FCF717FE0123013EA1F194
:103B1000F8710F93524B0022FCF7D0FC48A3D3E975
:103B20000023FCF783FE48A3D3E90023FCF7C8FC7D
:103B3000804630468946FCF70FFE45A3D3E90023B3
:103B4000FCF774FE02460B4640464946FCF7B8FCBB
:103B500080468946FDF71AF9002283460023404635
:103B60004946FDF7D5F8002840F07C82BBF1160FDE
:103B700000F26B823B4B03EBCB03D3E90023DDE97F
:103B80000A01FDF7C5F8002872D00023BE1B0E9372
:103B9000731E0BF1FF3B069300F15E820023099335
:103BA000BBF1000F6BDA099BCDF81CB0A3EB0B0344
:103BB0000993CBF100030D93229B092B4FF0000BCF
:103BC00066D8052B40F34883043B22930026229BB2
:103BD000023B032B00F26886DFE813F05C04590413
:103BE00050043304249A42F20F73CAF3130A136089
:103BF0005AEA08031AD1269B002B00F064861A4B60
:103C000003930833269A0398136019B0BDE8F08F28
:103C1000DDE90A12C2F31303084643F07F510F9700
:103C2000A6F2FF36169F41F4401173E7269B002B46
:103C300040F0EA830D4B039341E700BFAFF30080F0
:103C400061436F63A787D23FB3C8608B288AC63FA2
:103C5000FB799F501344D33F0000F07F517F000851
:103C60000000F83FC0800008787F0008747F0008DB
:103C7000BE1B731E069300F185840E900990069B6F
:103C80005B44CDE9063B00230D93229B092B98D979
:103C90000023CDE9223301264FF0FF330C96089321
:103CA000089B129300216164204601F0FFFE0390FF
:103CB000002800F00186039B2364089B0E2B00F272
:103CC0001381002E00F010810799002940F35C84D5
:103CD000AE4B01F00F0203EBC2034FEA2118C905F6
:103CE000D3E9006740F11484A94BDDE90A01D3E967
:103CF0000823FCF7C5FECDE9100108F00F084FF0CE
:103D0000030AB8F1000F13D0DFF8849218F0010F06
:103D100009D030463946D9E90023FCF787FD0AF17E
:103D2000010A06460F465FEA680809F10809EDD165
:103D3000DDE9100132463B46FCF7A2FE804689468B
:103D40000E9B43B1934B002240464946FCF7E0FFEF
:103D5000002840F030855046FCF7FEFC42464B46BA
:103D6000FCF764FD8C4B0022FCF7AAFBA1F1507319
:103D7000CDE910011193089B002B00F09780079B61
:103D80001493089B13930C9B002B00F0A584139AAB
:103D90007E4B8249039E03EBC20353E902230020BA
:103DA000FCF76EFEDDE91023FCF788FBCDE910017E
:103DB00049464046FCF7EAFF0746FCF7CDFC0246C1
:103DC0000B4640464946FCF779FB3037DDE91023C6
:103DD00006F8017B80468946FCF79AFF002840F0F0
:103DE0002985CDF854B00027DDE910AB1095139D5F
:103DF00013942AE00137AF4280F22C85684B50467D
:103E000059460022FCF712FD654B002282468B4684
:103E100040464946FCF70AFD89468046FCF7B6FF56
:103E20000446FCF799FC02460B4640464946FCF71F
:103E300045FB303406F8014B52465B4680468946C6
:103E4000FCF766FF002840F0F38442464B46514998
:103E50000020FCF733FB52465B46FCF759FF002875
:103E6000C8D0DDE91343109D039A079302E0964200
:103E700000F0C884B24616F8013D392BF7D0013363
:103E8000DBB23370079B01330793C8E15046FCF760
:103E900063FC42464B46FCF7C9FC3F4B0022FCF753
:103EA0000FFBA1F15073CDE9100111933D4B40463A
:103EB00049460022FCF702FBDDE910894B464246E9
:103EC00006460F46FCF742FF8146002840F0AA84D0
:103ED000DDE91001024601F1004330463946FCF7A6
:103EE00017FF002840F04583179B002BC0F28C8001
:103EF000079A0E2A00F38880244B03EBC203D3E910
:103F000000AB239B002B1BDA089B002B18DC40F036
:103F10002E83244B002250465946FCF787FC02466C
:103F20000B46DDE90A01FCF7FDFEDDF820904E4668
:103F3000002800F0C782239BDDF80C80DF43C9E234
:103F4000DDE90A7852465B4638464146FCF798FD63
:103F5000FCF71CFF81460990FCF7FEFB52465B46CE
:103F6000FCF764FC039E0B46024641463846FCF7CC
:103F7000A5FA09F1300306F8013B089B012B00F07C
:103F80005C830694012704951C462AE0C080000843
:103F9000988000080000F03F00001C400000E03F57
:103FA000000024400000144052465B46404649460B
:103FB000FCF766FDFCF7EAFE0546FCF7CDFB524632
:103FC0005B46FCF733FC01370B4602464946404648
:103FD000FCF774FA05F13003A74206F8013B00F044
:103FE0002983AC4B0022FCF721FC002200238046F1
:103FF0008946FCF783FE0028D6D0049D069C079BCB
:1040000001330793B2460AE10C9A002A3DD0229A66
:10401000012A40F39C82089B03F1FF380D9B434526
:10402000C0F26D82A3EB0808089B002BC0F23C8312
:10403000069A1A440692099A17461A4409920121CF
:10404000204601F001FE064623E00123BE1B0E932D
:10405000731E06937FF5A2ADC6F1010309930023F9
:1040600006939DE55846FCF777FB42464B46FCF726
:1040700045FE00287FF47AAD0BF1FF3B76E5864BD9
:104080000393039819B0BDE8F08FDDF83480099FE1
:104090000C9E002F0CDD069900290B4608DD099ABD
:1040A000B942A8BF3B46D21AFF1ACB1A099206930F
:1040B0000D9BDBB10C9B002B00F05D82B8F1000F73
:1040C0000FDD31464246204601F09AFE2A4601465F
:1040D0000646204601F0E6FD29460546204601F049
:1040E0000BFD0D9BB3EB080240F0D8820121204666
:1040F00001F0AAFDBBF1000F814600F3B480229BC2
:10410000012B40F386814FF0000A0120BBF1000F24
:1041100040F0B580069A104410F01F0000F0938024
:10412000C0F12003042B40F3D283099BC0F11C0093
:1041300003440244099307440692099B002B05DDC2
:1041400029461A46204601F0BBFE0546069B002B79
:1041500005DD49461A46204601F0B2FE81460E9B17
:10416000002B40F03681089B002B40F31D810C9BF7
:10417000002B40F0A080079B01330793DDF80C80F3
:10418000DDF820A0012707E0294600230A22204667
:1041900001F0BCFC0137054649462846FFF7C2FB43
:1041A000574500F1300308F8013BEDDB089A002A7F
:1041B000C8BF9346039AD8BF4FF0010B9344002722
:1041C000294601222046049301F07AFE494605461D
:1041D00001F0EEFE002840F3A8811BF8013C039A91
:1041E0000BF1FF3B04E05A4500F0AA811BF8013DAA
:1041F000392B0BF1010AF6D001338BF80030494618
:10420000204601F079FC56B12FB1B74203D03946B0
:10421000204601F071FC3146204601F06DFC294634
:10422000204601F069FC00238AF80030249B079A9D
:104230001A60269B002B3FF442AC0398C3F800A001
:1042400019B0BDE8F08F1C20099B03440993069B1D
:1042500003440744069370E70126B8E4C0F1200048
:1042600008FA00F04FE401465A46204601F0C8FD26
:10427000229B012B814640F3B3814FF0000AD9F80D
:10428000103009EB8303186901F090FCC0F12000A5
:1042900040E700BF00002440507F00083146002363
:1042A0000A22204601F032FC129B002B064640F306
:1042B000E782CDE90783002F00F31A81BAF1000FDE
:1042C00040F0D581B046049B039F089903F001029A
:1042D0007B1E1944229B0C92134309910A93494671
:1042E0002846FFF71FFB31468346284601F060FE53
:1042F000424649468246204601F07AFEC26801469F
:104300000BF13003002A42D106902846089301F0B1
:104310004FFE06990490204601F0EEFB049A089B9C
:104320001AB90A99002900F09B82BAF1000FC0F275
:10433000638122994AEA010A0C9951EA0A0100F0C4
:104340005B81002A00F3B481099A3B7007F1010AEE
:104350009742D34600F0B281294600230A22204624
:1043600001F0D4FB4645054631464FF000034FF0BF
:104370000A02204612D001F0C9FB4146064600233E
:104380000A22204601F0C2FB57468046A7E7204696
:10439000049301F0B1FB049B0122C6E701F0B6FBD8
:1043A0005746064680469AE7229B022B79DC0C9BF7
:1043B000002B80D1079B4946013328460793FFF71E
:1043C000B1FADDF80CB000F130030BF8013B002727
:1043D000F6E64946284601F0EBFD0028BFF6C3AEDD
:1043E000294600230A22204601F090FB079B03F197
:1043F000FF380C9B0546002B7FF450AF129B002B1F
:1044000040F335820893B9E6AF4B03930333FFF7CC
:10441000F9BBDDE9041200297FF475AEC2F3130382
:10442000002B7FF470AEA94B1340002B00F0FE81EF
:10443000099B01330993069B013306934FF0010A50
:1044400063E601230C93239B079A134412930133D1
:10445000012B1F460893B8BF01270021172F616465
:104460007FF722AC012204235B0003F11400B84261
:10447000114602F10102F7D9616415E401230C939E
:10448000239B002B4CDD129308931F46E5E7002386
:104490000C93D8E700230C93F2E7129BCDF81C8015
:1044A0000893089B002B7FF446AD49460522204621
:1044B00001F02CFB01468146284601F079FD0028D9
:1044C0007FF739AD0398079F3123804600F8013B01
:1044D000013703904946204601F00EFB7B1CDDF8B6
:1044E0000CA00793CDF80C80002E7FF494AE96E6D6
:1044F00031463A46204601F0E3FC0646DEE60D9BD7
:10450000CDF83480A8EB03039B444FF000088BE503
:10451000DDE90A234FF0020ACDE91023FFF7F1BBD2
:10452000012323930893FFF7BBBB03D1049BDB0755
:104530003FF553AEDA461BF8013D302BFAD05EE66C
:10454000079B039A013307933123137057E60F9AA1
:10455000002A00F0268103F23343069ADDF8348006
:104560001A440692099A17461A44099267E54FF0D1
:1045700000094E46DFE429460D9A204601F040FC32
:104580000546B3E50E9067E500F00F81079A504BA2
:10459000564206F00F0203EBC203D3E90023DDE924
:1045A0000A01FCF743F936118046894600F0718113
:1045B000484F00234FF0020AF20706D5D7E900233F
:1045C000FCF734F90AF1010A0123761007F1080714
:1045D000F2D1002B3FF4B4AB80468946FFF7B0BB65
:1045E000049B002B7FF449AEDDE90412C2F31303F0
:1045F000002B3FF418AF40E6002A12DD29460122C5
:104600002046049301F05CFC4946054601F0D0FCCD
:104610000028049B40F31881392B00F0F9800BF13E
:104620003103BA460AF8013B079B0133374607932B
:104630004646E4E50995069C049D02460B46FBF7B9
:104640003FFF52465B4680468946FCF77FFB60B9D8
:1046500052465B4640464946FCF750FB00283FF473
:10466000CEAC099BD9077FF5CAAC039A02E4716806
:10467000204601F01BFA0746002800F00E8133693E
:1046800002339A0006F10C010C30FBF779FE394633
:104690000122204601F014FC804614E629462046FB
:1046A00001F0AEFB054621E5DDE908239F1AC6E4CB
:1046B000392B00F0AD80BA460133B3E7079A0132D7
:1046C0003746079246467BE5747F00080000F07F7E
:1046D000C080000898800008DDF84CA0844901EBF8
:1046E000CA01DDE9102351E90201FCF79FF8CDE989
:1046F000100149464046FCF749FB0646FCF72CF8FA
:104700000B46024649464046FBF7D8FE039F5346F8
:104710003036012B07F8016B8046894600F0AE80E9
:10472000139E039B1E44734B002240464946FCF7F0
:104730007DF889468046FCF729FB8246FCF70CF899
:104740000AF1300A02460B4640464946FBF7B6FEE0
:1047500007F801ABB74280468946E4D1664B002298
:10476000DDE91001FBF7ACFE42464B46FCF7D0FA00
:10477000002864D1DDE910235F490020FBF79EFE8D
:1047800042464B46FCF7E2FA00283FF4ADABB24696
:10479000013E1AF8013C302BF9D0149B01330793EA
:1047A0003DE5169BC3F13603D7E6DDE90A894FF0F4
:1047B000020AFFF7C5BA089B002B3FF467AB129BB8
:1047C000002B7FF791AB079A013ACDE913324046AF
:1047D000484B00224946FCF729F8804689460AF1F1
:1047E0000100FBF7B9FF42464B46FCF71FF8434B6D
:1047F0000022FBF765FEA1F15073CDE91001119382
:10480000FFF7C1BA079B013307933123FFF739BB89
:10481000079BBB4601330793392337460BF8013B0F
:104820004646DCE44FF000094E464BE69A466CE4FF
:10483000109D139C149B01330793B246EFE4149B25
:10484000039A0793FFF716BB7FF4EBAEDA077FF509
:10485000E8AEE1E6DDF854B0109D139CFFF744BBD1
:10486000392BD5D0BAF1000F3FF7D9AED9E6229B4C
:10487000022B3FF712AECDF81C809BE53E466DE75C
:10488000229B022B3FF709AE129BCDF81C800893A8
:1048900011E54FF0020AFFF753BA194B19483A468F
:1048A00040F2EA2102F026FF0026666431462046E7
:1048B00001F0FCF8039078B9114B124800224FF434
:1048C000D57102F017FF104B0393FFF7F8B83FF4D0
:1048D00034ACC0F13C00B7E4039B236401224FF0E9
:1048E000FF33239612930C920893FFF7FDBA00BF93
:1048F000C0800008000024400000E03F00001C4091
:10490000847F0008987F0008787F0008B1F90C20A8
:10491000F8B50C461107074642D4636842F40062BA
:10492000002BA28159DDA56A002D54D000233E68DA
:104930003B6093B212F4805253D1E16901233846AF
:10494000A847421C63D0A389A56A5B0705D56368A5
:10495000C01A236B0BB1E36BC01AE1690246002356
:104960003846A847411C3ED13B68002B3BD01D2B4D
:1049700001D0162B52D1A3892269226023F400634F
:1049800000216160A381216B3E6021B304F14003EB
:10499000994202D0384600F0AFF900202063F8BDFC
:1049A0002669C6B193B2256826609A070CBF636971
:1049B0000023AD1BA3600CE0D4F824C0E1692B46B2
:1049C00032463846E047B0F1000CA5EB0C056644D2
:1049D00016DD002DF0DC0020F8BDE36B002BA2DC1F
:1049E000F9E7206DB1E7B4F90C302269226023F4B5
:1049F0000063A3810022DB046260C4D52065C2E7A6
:104A0000A38943F040034FF0FF30A381F8BD3B681A
:104A1000002B98D01D2B06D0162B04D0A38943F071
:104A20004003A381F8BD3E60D5E700BF38B50C4612
:104A3000054608B1836BA3B1B4F90C00B8B1636E3D
:104A4000DB0701D4810515D528462146FFF75EFF17
:104A5000636EDA07054602D4A3899B050ED5284666
:104A600038BD00F051F8B4F90C000028E7D1054634
:104A7000284638BDA06D00F035FCE5E7A06D00F0DC
:104A800033FC284638BD00BF38B548B3184B1D6805
:104A900004460DB1AB6BBBB1B4F90C0088B1636EC9
:104AA000DB0701D4810513D528462146FFF72EFFE9
:104AB000636EDA07054602D4A3899B050CD5284608
:104AC00038BD0546284638BD284600F01DF8E3E706
:104AD000A06D00F007FCE7E7A06D00F005FCEEE735
:104AE000044B05491868BDE8384000F09FBB00BF83
:104AF00010000020087F00082D4A0008014900F03E
:104B000095BB00BFD17700082DE9F04782463948B0
:104B100000F0E8FBDAF83840002C66D1DAF80450EF
:104B2000354ACAF83C200323CAE9B843DFF8CC90E1
:104B3000DFF8CC80334F344E04230AF53B72CAF8B9
:104B4000E8222146C5E90243C5E90044C5E9044419
:104B50006C660822AC6105F15C00FCF72BFFC5E92F
:104B60000759C5E90987EE6205F1580000F0B6FB68
:104B7000DAF80850254BEB602146C5E90044C5E949
:104B800004446C66AC60AC61082205F15C00FCF783
:104B900011FFC5E90759C5E90987EE6205F158001B
:104BA00000F09CFBDAF80C50194BEB602146C5E98C
:104BB0000044C5E904446C66AC60AC61082205F1B0
:104BC0005C00FCF7F7FE05F15800C5E90759C5E997
:104BD0000A76C5F8248000F081FB0123CAF838303A
:104BE0000448BDE8F04700F07FBBBDE8F04701484E
:104BF00000F07ABBF0090020FD4A0008A166000819
:104C0000C56600080567000825670008090001005F
:104C100012000200014800F065BB00BFEC09002053
:104C2000014800F061BB00BFEC09002038B5084B1B
:104C3000084D5B1B9C1007D0043B1D44013C55F8FC
:104C400004399847002CF9D1BDE8384003F09EB8EC
:104C50001C83000818830008F8B5244F0C4606464C
:104C600000F018FFBA685568C4F57E630F3325F06D
:104C700003052B4423F47F6323F00F03A3F5805433
:104C8000B4F5805F07DB0021304601F0F7FCBB681C
:104C90002B44984204D0304600F002FF0020F8BDBB
:104CA0006142304601F0EAFC01300DD0104ABB6889
:104CB0002D1B45F001055D60136830461B1B13601A
:104CC00000F0EEFE0120F8BD0021304601F0D6FCD8
:104CD000BA68831A0F2BDEDD43F001035360054BE6
:104CE00003491B68C01A0860D5E700BF44040020D0
:104CF000F40900204C080020002961D0F8B50C46CA
:104D0000064600F0C7FE54F8042C7B4FA4F10805BA
:104D100022F0010105EB010CB868DCF804306045B5
:104D200023F0030300F08B80D207CCF8043032D498
:104D300054F8082CAD1A1144AA6807F10800824201
:104D40006AD00CEB0304D4F804E0EC68D4601EF0E5
:104D5000010FA26000F0978041F001036B60CCF876
:104D60000010B1F5007F35D27A68CB0848090121DF
:104D7000013381401143796007EBC30257F83310C8
:104D8000083AC5E9021247F83350CD603046BDE815
:104D9000F84000F085BE0CEB03025268D00710D437
:104DA000194407F10800DCF80830834273D0DCF8BE
:104DB0000C20DA60936041F001036B606950D0E72A
:104DC000704741F00103B1F5007F44F8043CCCF892
:104DD0000010C9D3B1F5206F4FEA512348D28B0997
:104DE00003F1390003F13802C300F818FB58083802
:104DF000984259D05A6822F003028A4202D99B682D
:104E00009842F7D1D868C5E902308560DD60304648
:104E1000BDE8F84000F044BE0CEB03025268D20734
:104E200063D40B44DCE90212CA60916043F00102D2
:104E30006A603046EB50BDE8F84000F031BE0B44EC
:104E4000D10707D454F8082CAD1A1344D5E902123F
:104E5000CA60916043F001026A60284ABD6012682E
:104E60009A4293D8264B30461968FFF7F5FE8DE736
:104E7000142B0AD9542B1FD80B0B03F16F0003F12D
:104E80006E02C300B1E719448DE703F15C0003F142
:104E90005B02C300A9E741F00103C7E90455C5E976
:104EA00002006B60695071E779689210012404FA7E
:104EB00002F20A437A60A6E7B3F5AA7F06D8CB0BC5
:104EC00003F1780003F17702C3008EE740F25452F9
:104ED000934206D88B0C03F17D0003F17C02C300E2
:104EE00083E74FF47E737E227FE741F001036B601E
:104EF000CCF800104AE700BF44040020500800200E
:104F0000240A00209368002B00F081802DE9F04FE7
:104F1000B1F90C300C461907804683B0174698B299
:104F200023D523690BB310F002033D682BD04FF05B
:104F3000000ADFF8B4B256465E453346524628BFF3
:104F40005B464046002E4FD0E169D4F824C0E047CC
:104F5000002852DDBB681B1A8244361ABB60002B46
:104F6000EAD1002003B0BDE8F08F21464046FEF7AD
:104F70005FFC002840F03481B4F90C303D6898B2F1
:104F800010F00203D3D110F0010942D14E463EB3D6
:104F90008205D4F808B040F18180B3455A4600F24A
:104FA000B18010F4906F40F0BE80206801924946B5
:104FB00000F0F4FCA3682168019AA3EB0B030A44F8
:104FC000B246A36022600026B868A0EB0A00D14474
:104FD000B8600028C5D0B4F90C0080B2002ED7D13B
:104FE000D5E900960835D2E7D5E900A60835A3E74C
:104FF00021464046FFF71AFD80B3B4F90C3043F068
:1050000040034FF0FF30A38103B0BDE8F08F0020D4
:1050100070471E46AA46994618461D4656B388B3A1
:105020004A46D4E904132068B24228BF3246884277
:1050300005D9A16803EB010B5A4500F3A780934201
:1050400064DCE169D4F824C02A464046E047B0F168
:10505000000BD2DDB9EB0B09CAD00120BB68A3EB72
:105060000B035D44A6EB0B06BB60002B3FF479AF4E
:10507000002ED4D10AF1080353E902569A460833A8
:10508000002EF9D032460A212846FBF729F90028DC
:1050900000F09D800130A0EB0509C1E7206823697D
:1050A000984217D86369B34214D86FF00042B242F5
:1050B00028BF3246E16992FBF3F2D4F824C002FB28
:1050C00003F340464A46E047B0F1000A95DDA6EBFF
:1050D0000A0679E7B345DA4628BFB2465246494642
:1050E00000F05CFCA3682268A3EB0A035244A360AF
:1050F0002260002BEBD121464046FFF797FC0028A9
:10510000E5D07AE72068B34632464FE72946019258
:1051100000F044FC019AA3689B1AA360236813441F
:105120002360934696E723682169A3EB010B63692B
:1051300003EB430A0AEBDA7A0BF101034FEA6A0A3E
:1051400033445345524684BF9A46524643052CD5B4
:105150001146404600F072F900283BD05A462169BA
:105160000190FBF70DF9A289019B22F4906242F0B5
:105170008002A28103EB0B002361AAEB0B03C4F8AE
:1051800014A0A3602060B34632460FE729465A4672
:1051900000F004FC23685B44236021464046FFF78F
:1051A00045FC00283FF456AF27E7404601F028F8B9
:1051B00003460028DED121694046FFF79DFDB4F982
:1051C0000C300C2223F08003C8F8002017E7721C73
:1051D000914626E70C22B4F90C30C8F800200EE7FF
:1051E0004FF0FF30BEE600BF00FCFF7F2DE9F0412D
:1051F000884600F538770026D7E90154013D0FD4E1
:10520000A389012B05F1FF3506D9B4F90E3001331E
:10521000204601D0C04706436B1C04F16804EFD15F
:105220003F68002FE8D13046BDE8F0812DE9F84312
:105230000746884600F538764FF00009D6E9015454
:10524000013D11D4A389012B05F1FF3508D9B4F92B
:105250000E300133214603D03846C04749EA0009E1
:105260006B1C04F16804EDD13668002EE6D1484687
:10527000BDE8F88338B50C46054608B1836BB3B179
:10528000636ED80702D4A38999051ED56368013BD4
:10529000002B63600EDB23685A1C22601D78636E4E
:1052A000DA0702D4A3899B050AD5284638BDFFF743
:1052B0002BFCE5E72846214601F08EF90546EEE78E
:1052C000A06D00F011F8284638BDA06D00F00AF876
:1052D000DCE700BF0048704744090020704700BF6A
:1052E000704700BF704700BF704700BF2DE9F04115
:1052F0008B890C46990796B008D504F14303012227
:10530000C4E90432236016B0BDE8F081B4F90E1090
:105310000029064627DB6A4602F05CFB002821DBF9
:10532000019D05F47045A5F50055B5FA85F54FF4D6
:1053300080686D094FF400674146304600F07EF802
:10534000B4F90C30F0B1204AF26343F08003C4F8A2
:105350001480A3812060206135BB3B43A38116B03C
:10536000BDE8F081A38913F0800519D04FF0400803
:105370004146304600F062F80025B4F90C302F4663
:105380000028E0D19A05BED423F0030304F14302C0
:1053900043F002030121C4E90421A3812260B2E7A2
:1053A0004FF480682F46C7E7B4F90E10304602F07C
:1053B00027FB10B9B4F90C30CFE7A38923F003031E
:1053C00043F001031BB2C8E7FD4A000870B50C4664
:1053D000B1F90E10002996B015461E4614DB6A4638
:1053E00002F0F8FA00280FDB019A02F47042A2F5ED
:1053F0000052B2FA82F24FF4806352094FF4006017
:1054000032602B6016B070BDB4F90C10002311F09F
:105410008000336004D0402218462A6016B070BD68
:105420004FF480632B6016B070BD00BF024B014685
:10543000186800F003B800BF100000202DE9F04FFD
:1054400001F10B06162E83B0044624D8102900F271
:10545000BA8000F01FFB102618220220B54F3A44F4
:10546000A2F1080153688B4200F0BA805A68D968EB
:1054700022F003021A449D68E9608D60516841F092
:1054800001012046516003F1080500F009FB2846A0
:1054900003B0BDE8F08F36F0070600F19480B1420A
:1054A00000F2918000F0F6FAB6F5FC7FC0F09A8128
:1054B000730A00F08F80042B00F26F81B30903F1AF
:1054C000390003F1380CC3009A4F3B44A3F108059F
:1054D0005B689D4206D10CE0002980F22781DB68E1
:1054E0009D4206D05A6822F00302911B0F29F3DD7A
:1054F00060463D69DFF840C265457CD06A6822F0AD
:105500000302931B0F2B00F37B81002BC7E904CC14
:1055100080F26C81B2F5007F80F01A81D30879683F
:1055200001334FEA521E012202FA0EF20A4357F8E3
:1055300033E0C5F808E007EBC3010839E9607A6099
:1055400047F83350CEF80C50831001219940914216
:1055500057D8114206D120F003004900114200F152
:105560000400FAD007EBC0094D468646D5F80C80FA
:10557000454508D11DE1002B80F22481D8F80C802C
:10558000454500F01681D8F8042022F00302931B51
:105590000F2BF0DD2046D8E9025408EB060146F057
:1055A0000106C8F80460EC60A56043F00104C7E997
:1055B0000411C1E902CC4C6048F8023000F070FAE6
:1055C00008F1080502E00C2323600025284603B0FB
:1055D000BDE8F08F4FF4007340204FF03F0C73E7AD
:1055E000D3689A4208BF02307FF440AF3D69DFF8CC
:1055F00048C1654582D17A68831001219940914262
:10560000A7D9BD686B6823F003094E4503D8A9EB01
:1056100006030F2B7ADCDFF824B1494BDBF80020BE
:105620001B680132334405EB090A00F0338103F5AE
:1056300080530F3323F47F6828F00F08414620463B
:1056400001F01CF8411C024600F0F380824500F294
:10565000EE803C4B196841441960084600F04E81C9
:10566000DBF80010019301311BBFA2EB0A0A504482
:10567000CBF80020186012F0070B00F01781CBF177
:1056800008010A44CBF5805190440831A1EB080190
:10569000C1F30B0A51462046009200F0EFFF421C76
:1056A000DDE9002300F04F81801A00EB0A08196839
:1056B000BA6048F001005144BD425060196000F0EA
:1056C0002981B9F10F0F40F227816868A9F10C0C0C
:1056D0002CF0070C00F0010040EA0C0068604FF06D
:1056E000050E05EB0C00BCF10F0FC0E901EE00F256
:1056F000328150681546144B1A688A4238BF1960C7
:10570000124B1A688A4238BF196094E0AA1943F014
:10571000010346F001066E602046BA60536000F057
:10572000BFF90835284603B0BDE8F08FD9681A44A0
:10573000A1E600BF440400204C0400204C080020D7
:10574000240A0020F40900201C0A0020200A00205E
:10575000B2F5206F4FEA522363D3142B00F2B780C7
:1057600003F15C01C9005B3307EB010E7958AEF120
:10577000080E8E4500F091804B6823F0030393429E
:1057800002D989688E45F7D1D1F80CE07A68C5E96D
:10579000021ECEF80850CD60D6E6142B59D9542BF2
:1057A00000F29D80330B03F16F0003F16E0CC30018
:1057B0008AE60EF1010E1EF0030F05F108057FF4D5
:1057C000D5AE51E0424445465368D8F80C1043F03A
:1057D0000103536055F8083F2046D9608B6000F004
:1057E0005FF9F3E6F00806F1080237E62A4420469E
:1057F000536843F001035360083500F051F9E5E6C2
:10580000A919204646F0010643F001046E60C7E97D
:105810000411C1E902CC4C60AB5000F041F90835ED
:10582000D4E6930903F13901C90038339CE7BD423E
:105830005FD0BD68686820F003084645A8EB060302
:1058400002D80F2B3FF762AF204600F029F9002560
:10585000BCE603F15C0003F15B0CC30034E659F8CD
:1058600008394B4540F0968010F0030F00F1FF30EF
:10587000F5D17B6823EA01037B60490099423FF63A
:10588000C0AE19B9BDE649000EF1040E1942FAD0B6
:10589000704667E603F11008D0E69A104FF0010851
:1058A0007B6808FA02F21A437A6070E702EB08019B
:1058B0004942C1F30B0A51462046009200F0DEFE39
:1058C000431CDDE900237FF4EFAEDA46EFE6542B0C
:1058D00025D8130B03F16F01C9006E3344E7B3F50C
:1058E000AA7F25D8F30B03F1780003F1770CC300EE
:1058F000EAE5294B186840441860B1E6CAF30B0C7E
:10590000BCF1000F7FF4ACAEBD68C84448F00100A4
:105910006860F0E61546EEE60123536094E7B3F5C0
:10592000AA7F23D8D30B03F17801C90077331BE793
:1059300040F25452934223D8B30C03F17D0003F19B
:105940007C0CC300C0E5ABF1080BD844A8EB0208FF
:105950004FF0000AABE605F1080120460093FFF77F
:10596000CBF9BD68009B68681968C4E640F25451E1
:105970008B420BD8930C03F17D01C9007C33F3E615
:105980004FF47E737F204FF07E0C9DE54FF47E71C7
:105990007E23E9E67B6870E7F409002088420DD990
:1059A0008B1883420AD900EB020CBAB1624613F895
:1059B00001CD02F801CD9942F9D170470F2A0ED8D6
:1059C000034602F1FF3C4AB10CF1010C013B8C444F
:1059D00011F8012B03F8012F6145F9D1704740EA16
:1059E00001039B0750D1A2F1100370B501F1200C07
:1059F00023F00F0501F1100E00F11004AC441B0957
:105A00005EF8105C44F8105C5EF80C5C44F80C5CCA
:105A10005EF8085C44F8085C5EF8045C44F8045CDA
:105A20000EF1100EE64504F11004E9D1013312F035
:105A30000C0F01EB031102F00F0400EB031327D04E
:105A4000043C24F003064FEA940C1E441C1F8E46AF
:105A50005EF8045B44F8045FB442F9D10CF1010430
:105A600002F0030203EB840301EB840102F1FF3C2B
:105A70004AB10CF1010C013B8C4411F8012B03F8E5
:105A8000012F6145F9D170BD02F1FF3C03469BE750
:105A90002246EBE70148FFF725BC00BFE8090020DC
:105AA0000148FFF721BC00BFE8090020C36C70B5B6
:105AB00005460C464BB153F8240080B1026843F808
:105AC00024200023C0E9033370BD2122042101F00A
:105AD00031FE0346E8640028EDD1002070BD0121AD
:105AE00001FA04F6721D9200284601F023FE0028F8
