:020000040800F2
:1000000000000320ED0300086105000863050008F7
:100010006505000867050008690500080000000084
:100020000000000000000000000000006D05000856
:100030006B050008000000006F050008710500084E
:100040003D0400083D0400083D0400083D0400088C
:100050003D0400083D0400083D0400083D0400087C
:100060003D0400083D0400083D0400083D0400086C
:100070003D0400083D0400083D0400083D0400085C
:100080003D0400083D0400083D0400083D0400084C
:100090003D0400083D0400083D0400083D0400083C
:1000A0003D0400083D0400083D0400083D0400082C
:1000B0003D0400083D0400083D0400083D0400081C
:1000C0003D0400083D0400083D0400083D0400080C
:1000D0003D0400083D0400083D0400083D040008FC
:1000E0003D0400083D0400083D0400083D040008EC
:1000F0003D0400083D0400083D0400083D040008DC
:100100003D0400083D0400083D0400083D040008CB
:100110003D0400083D0400083D0400083D040008BB
:100120003D0400083D0400083D0400083D040008AB
:100130003D0400083D0400083D0400083D0400089B
:100140003D0400083D0400083D0400083D0400088B
:100150003D0400083D0400083D0400083D0400087B
:100160003D0400083D0400083D0400083D0400086B
:100170003D0400083D0400083D04000800000000A4
:100180003D0400083D0400083D0400083D0400084B
:100190003D0400083D0400083D0400083D0400083B
:0C01A0003D0400083D0400083D04000878
:1001AC0010B5054C237833B9044B13B10448AFF3A5
:1001BC0000800123237010BD2C04002000000000DF
:1001CC009C06000808B5034B1BB103490348AFF369
:1001DC00008008BD00000000300400209C060008D0
:1001EC0082B0002301930093344A136843F48033A4
:1001FC001360324B1B6803F400330093019B0133F3
:10020C000193009B1BB9019BB3F5A04FF1D12B4B74
:10021C001B6813F4003F06D001230093009B012BB5
:10022C0004D002B0704700230093F7E7234B1A6CFD
:10023C0042F080521A6422490A6842F440420A6031
:10024C009A689A609A6842F400429A609A6842F4FA
:10025C00A0529A601B4A5A601A6842F080721A6067
:10026C00164B1B6813F0007FFAD0154A136843F441
:10027C0080331360124B5B6813F4803FFAD0104A42
:10028C00136843F4003313600D4B5B6813F4003FA9
:10029C00FAD00D4B40F205721A60A3F580639A6890
:1002AC0022F003029A609A6842F002029A60034BB1
:1002BC009B6803F00C03082BF9D1B2E7003802401D
:1002CC0000700040195A4007003C024008B50D4B25
:1002DC001A6842F001021A60002199601A6822F033
:1002EC00847222F480321A60074A5A601A6822F427
:1002FC0080221A60D960FFF773FF044B4FF0006245
:10030C009A6008BD003802401030002400ED00E077
:10031C0000230F2B4ED830B516E0C2681FFA83FEAF
:10032C004FEA4E044FF0030E0EFA04FE22EA0E02C0
:10033C00C260C26891F807E00EFA0CFC42EA0C02AB
:10034C00C26001330F2B34D801229A400C68A243AF
:10035C00F7D104684FEA430C032202FA0CF26FEA5D
:10036C00020E24EA0202026002680C7904FA0CF410
:10037C00224302600A79013AD2B2012ACDD88268AE
:10038C000EEA0202826082684C7904FA0CF4224371
:10039C00826044689DB24FF0010E0EFA05FE24EA0D
:1003AC000E04446044688A79AA4092B222434260A7
:1003BC00B3E730BD70470369194201D00120704783
:1003CC000020704721B1054A136B18431063704726
:1003DC00024A136B23EA0000106370470038024096
:1003EC00DFF834D00D480E490E4A002302E0D458F1
:1003FC00C4500433C4188C42F9D30B4A0B4C002361
:10040C0001E013600432A242FBD3FFF75FFF00F060
:10041C00ABF800F07BF870470000032000000020D0
:10042C002C040020C40600082C0400204C040020DE
:10043C00FEE7000000B583B001210846FFF7C2FFBC
:10044C0001210420FFF7BEFF0123009300238DF848
:10045C0004308DF8073069460648FFF759FF4FF412
:10046C000053009369460448FFF752FF03B05DF850
:10047C0004FB00BF000002400008024070B50546B6
:10048C000C46FFF798FF0646012802D0002630469E
:10049C0070BD21462846FFF78EFF0128F9D0F6E7FC
:1004AC00F0B583B001218020FFF78CFF0121802063
:1004BC00FFF788FF01218020FFF784FF4FF480674E
:1004CC00009701228DF8042000238DF806308DF85A
:1004DC0007208DF805300C4C69462046FFF718FFB5
:1004EC004FF40066009669462046FFF711FF4FF463
:1004FC008055009569462046FFF70AFF278326831F
:10050C00258303B0F0BD00BF001C024008B5FFF707
:10051C00C7FFFFF78FFF01210B48FFF7AFFF012843
:10052C000CD04FF400510948FFF7A8FF0128F2D175
:10053C00074A536983F400635361ECE7044A536937
:10054C0083F480635361ECE7000002400008024032
:10055C00001C02407047FEE7FEE7FEE7FEE770472F
:10056C00704770477047000070B50D4E0D4D761BEF
:10057C00B61006D0002455F8043B01349847A64227
:10058C00F9D1094E094D761B00F082F8B61006D051
:10059C00002455F8043B01349847A642F9D170BDAC
:1005AC00B8060008B8060008C0060008B80600081F
:1005BC00024B13B1024800F005B870470000000070
:1005CC00DD050008002301461A46184600F01AB84B
:1005DC0038B5084B084D5B1B9C1007D0043B1D44E1
:1005EC00013C55F804399847002CF9D1BDE8384046
:1005FC0000F054B8C4060008C0060008704700BFDD
:10060C00704700BF2DE9F047DFF87CA00646DAF80A
:10061C00000098460F469146FFF7F0FF1B4B1B68F6
:10062C00D3F8484124B365681F2D26DC5EB96B1CDA
:10063C000235DAF80000636044F82570FFF7E0FF3C
:10064C000020BDE8F08704EB85010123C1F88890F8
:10065C00D4F88821AB401A43022EC4F88821C1F883
:10066C000881E4D1D4F88C211343C4F88C31DEE733
:10067C0003F5A674C3F84841D5E7DAF80000FFF794
:10068C00BFFF4FF0FF30DCE728040020B406000861
:10069C00F8B500BFF8BC08BC9E467047F8B500BF63
:0806AC00F8BC08BC9E46704733
:0406B4000000002022
:0806B800BD050008D101000896
:0406C000AD01000880
:1006C40000000000EC02002054030020BC030020C2
:1006D4000000000000000000000000000000000016
:1006E4000000000000000000000000000000000006
:1006F40000000000000000000000000000000000F6
:1007040000000000000000000000000000000000E5
:1007140000000000000000000000000000000000D5
:1007240000000000000000000000000000000000C5
:1007340000000000000000000000000000000000B5
:1007440000000000000000000000000000000000A5
:100754000000000000000000000000000000000095
:100764000000000000000000010000000000000084
:100774000E33CDAB34126DE6ECDE05000B00000049
:100784000000000000000000000000000000000065
:100794000000000000000000000000000000000055
:1007A4000000000000000000000000000000000045
:1007B4000000000000000000000000000000000035
:0C0AE4000000000000000000480400209A
:04000005080003EDFF
:00000001FF
